:020000040800F2
:1000000000280020C50200080D0300080D030008A9
:100010000D0300080D0300080D0300080000000098
:100020000000000000000000000000000D030008B8
:100030000D030008000000000D0300084F13000826
:100040000D0300080D0300080D0300080D03000850
:100050000D0300080D0300080D0300080D03000840
:100060000D0300080D0300080D0300080D03000830
:100070000D0300080D0300080D0300080D03000820
:100080000D0300080D0300080D0300080D03000810
:100090000D0300080D0300080D0300080D03000800
:1000A0000D0300080D0300080D0300080D030008F0
:1000B0000D030008ED110008000000000D0300080A
:1000C0000D03000800000000000000000D03000800
:1000D000000000000D1100082111000800000000C0
:1000E0000D0300080D0300080D03000800000000C8
:1000F0000000000000000000000000000000000000
:0C01000000000000000000005FF808F1A3
:10010C0010B5054C237833B9044B13B10448AFF345
:10011C0000800123237010BD70000020000000003F
:10012C0038150008084B10B51BB108490848AFF347
:10013C0000800848036803B910BD074B002BFBD0A7
:10014C00BDE81040184700BF0000000074000020FC
:10015C00381500087000002000000000034613F85A
:10016C00012B002AFBD1181A0138704738B5054607
:10017C0000F0CAF9044600F0C7F9001BA84202D2ED
:10018C0000F0BFF8F7E738BD38B5104D104C012220
:10019C001049114800F0FCF8284606224FF416517D
:1001AC0000F0CEFE06224FF41651204600F0C8FE99
:1001BC004FF47A70FFF7DAFF0849284600F040FE4A
:1001CC002046BDE83840064900F03ABEC801002080
:1001DC009801002020002004001001405015000858
:1001EC006D1500080B4A08B5D36883F40053D3602F
:1001FC00094800F074FE38B1074800F04EFEC1B259
:10020C00064800F05FFEF3E74FF4FA70FFF7AEFF1D
:10021C0008BD00BF00100140C8010020980100205B
:10022C00214A38B5136823F0070313601F4B194696
:10023C001A6822F0F80242F080021A601A6842F042
:10024C0001021A600A68194B9207FBD55A6822F012
:10025C00F0025A605A6822F4E06242F4A0625A60DA
:10026C005A6822F4605242F400525A605A6822F0E2
:10027C0003025A604A6812F00C05FBD10C4C0D4875
:10028C0000F006FD23680B4843F00403236000F0E4
:10029C000DFD2A4629464FF0FF3000F01FFD236864
:1002AC0043F00203236038BD0020024000100240DE
:1002BC0010E000E000127A00002103E00B4B5B58C9
:1002CC00435004310A480B4B42189A42F6D30A4A5F
:1002DC0002E0002342F8043B084B9A42F9D300F0A9
:1002EC0059FD01F06DF800F0B6FD70471C180008C0
:1002FC00000000207000002070000020840200200C
:10030C00FEE770471E4B84B098420BD103F5843343
:10031C009A6942F004029A619B6903F0040300930A
:10032C00009B2BE0174B98420BD103F582339A6953
:10033C0042F008029A619B6903F008030193019B48
:10034C001CE0114B98420BD103F580339A6942F0B3
:10035C0010029A619B6903F010030293029B0DE05B
:10036C000A4B98420AD103F57C439A6942F0200269
:10037C009A619B6903F020030393039B04B07047BD
:10038C0000080140000C0140001001400014014025
:10039C00F8B515460446FFF7B5FF022D09D003D872
:1003AC009DB1012D0AD0F8BD032D05D0112D08D01B
:1003BC00F8BD012600270AE00026FBE70026374699
:1003CC0006E001260427354602E02E4604270825C0
:1003DC004FEA116E91FAA1F3B3FA83F391FAA1F0FB
:1003EC00B0FA80F00F229B0002FA03F354F80E20AF
:1003FC00800022EA030205FA00F0104344F80E00D4
:10040C00E268080A90FAA0F3B3FA83F322EA000236
:10041C0006FA03F31343E36091FAA1F6B6FA86F6F3
:10042C0091FAA1F2B2FA82F291FAA1F3B3FA83F53E
:10043C0091FAA1F1B1FA81F10420B60000FA06F6A6
:10044C0054F80E00920020EA060007FA02F202436A
:10045C00AB00032000FA03F3890022EA030388406F
:10046C00034344F80E30F8BD0368DA6822F4907246
:10047C00DA605A6922F001025A61202380F83A307E
:10048C007047000038B50E4B054618784FF47A7358
:10049C00B3FBF0F30B4A1068B0FBF3F000F05EFC1A
:1004AC00044658B90F2D09D8024629464FF0FF30A3
:1004BC0000F014FC044B20461D6038BD012038BDF3
:1004CC00040000200800002000000020074A08B5A6
:1004DC001368032043F01003136000F0EDFB0F20B2
:1004EC00FFF7D0FF00F034FF002008BD00200240D1
:1004FC00034A0449136809780B441360704700BF22
:10050C005002002004000020014B1868704700BF07
:10051C0050020020F8B504460E4617461D462168C9
:10052C000B6836EA03031BD06B1CF9D095B9236812
:10053C000320DA6822F4D072DA605A6922F00102E0
:10054C005A61202384F8393084F83A30002384F837
:10055C003830F8BDFFF7D8FFC01B8542DFD2E6E785
:10056C000020F8BD90F8213010B5022B03D00423E5
:10057C008363012010BD03681A6822F00E021A6012
:10058C001A6822F001021A60184A934213D01432EE
:10059C00934212D01432934211D01432934211D0A0
:1005AC001432934211D0143293420CBF4FF4801387
:1005BC004FF080730BE0012309E0102307E04FF4A8
:1005CC00807304E04FF4805301E04FF48033084A09
:1005DC0000245360012380F82130436B80F82040C5
:1005EC0013B19847204610BD184610BD08000240B4
:1005FC00000002402DE9F74F002426465F4BDFF840
:10060C008CE1DFF88CC101220D68B24032EA05059D
:10061C0040F0AC804D68122D28D00ED8022D22D07F
:10062C0004D835B3012D2DD1CC682BE0032D18D077
:10063C00112D27D1CC68043424E0514FBD4218D081
:10064C0007D8DFF85081454513D008F5803845456B
:10065C0005E04C4FBD420CD075450AD0654511D113
:10066C0007E000240EE0CC6808340BE0CC680C34B6
:10067C0008E08C682CB1012C0CBF0261426108248B
:10068C0000E00424FF2A97BF8346A6F10805D0F8A2
:10069C000090B50084BFD0F80490AD004FF00F0867
:1006AC0008FA05FA29EA0A0904FA05F588BF00F1E7
:1006BC00040B49EA0505CBF80050D1F8049019F069
:1006CC00805F53D0304D304FAD6906F0030A45F0D2
:1006DC000105BD61BD694FEA8A0A05F00105019566
:1006EC00019D26F0030505F1804505F58035D5F80B
:1006FC0008B0A7F5843708FA0AF8B8422BEA0808BC
:10070C000CD007F58067B8420BD007F58067B8426C
:10071C000CBF4FF0020B4FF0030B04E04FF0000B3B
:10072C0001E04FF0010B0BFA0AFA4AEA080AC5F885
:10073C0008A01D6819F4803F14BF154395431D6034
:10074C005D6819F4003F14BF154395435D609D68C7
:10075C0019F4801F14BF154395439D60DD6819F48F
:10076C00001F14BF2A4325EA0202DA600136102E5C
:10077C007FF449AF03B0BDE8F08F00BF0004014027
:10078C000000211000003110001002400000321057
:10079C000000221000001110044B054A5B68C3F3E3
:1007AC000223D35C034A1068D84070470010024003
:1007BC001417000808000020044B054A5B68C3F3BB
:1007CC00C223D35C034A1068D84070470010024023
:1007DC0014170008080000202DE9F047056881680F
:1007EC002B69804623F44052C3684FF0190A134317
:1007FC002B610369EA6819434369194322F4B05326
:10080C0023F00C030B43EB606B6923F44072836998
:10081C0013436B61404B9D4234D1FFF7CDFF0AFB74
:10082C0000F0D8F804606427B600B0FBF6F6FFF7CA
:10083C00C3FF0AFB00F0D8F80440B6FBF7F6A4009F
:10084C00B0FBF4F4FFF7B8FF0AFB00F0D8F8043063
:10085C0036019B00B0FBF3F0B0FBF7F007FB104444
:10086C00FFF7AAFF24013234B4FBF7F40AFB00F0C3
:10087C00D8F8043004F0F0049A00B0FBF2F9FFF75A
:10088C009BFF33E0FFF788FF0AFB00F0D8F8046009
:10089C006427B600B0FBF6F6FFF77EFF0AFB00F00C
:1008AC00D8F80440B6FBF7F6A400B0FBF4F4FFF75D
:1008BC0073FF0AFB00F0D8F8043036019B00B0FB44
:1008CC00F3F0B0FBF7F007FB1044FFF765FF2401D2
:1008DC003234B4FBF7F40AFB00F0D8F8043004F01F
:1008EC00F0049A00B0FBF2F9FFF756FF0AFB00F197
:1008FC00D8F804008000B1FBF0F0B0FBF7F007FB78
:10090C00109212013232B2FBF7F303F00F032344BF
:10091C001E44AE60BDE8F08700380140704710B54A
:10092C00044640B390F8393003F0FF021BB980F84D
:10093C003820FFF7F3FF2268242384F83930D3687A
:10094C00204623F40053D360FFF746FF23680020B2
:10095C001A6922F490421A615A6922F02A025A61E9
:10096C00DA6842F40052DA602023E06384F839300C
:10097C0084F83A3010BD012010BD2DE9F0411F461E
:10098C0090F839300446202B0D4690464FD1002963
:10099C004AD0002A48D090F83830012B47D0012398
:1009AC0080F838300023C363212380F83930FFF7F7
:1009BC00ABFD0646A4F82480A4F82680E38C9BB2F9
:1009CC001BB3E38C3246013B9BB2E384A3688021CA
:1009DC00B3F5805F20463B460ED1FFF79BFD10B16F
:1009EC000320BDE8F0812B882268C3F30803536011
:1009FC00236943B90235E1E7FFF78CFD0028EFD1FD
:100A0C0023682A785A600135D8E73B4632464021A4
:100A1C002046FFF77FFD0028E2D1202384F83930EF
:100A2C0084F83800BDE8F0810120BDE8F081022097
:100A3C00BDE8F08190F83930202B18D1A9B1A2B1C2
:100A4C0090F83830012B12D0C284016282840023CA
:100A5C0001682122C36380F83920CA6880F83830D5
:100A6C0042F08002CA60184670470120704702208D
:100A7C00704790F83A30202B20D1E9B1E2B190F8D0
:100A8C003830012B1AD0C285828500232222C36301
:100A9C0080F83A2002688162D16880F8383041F4DD
:100AAC008071D1605169184641F001015161D168E2
:100ABC0041F02001D160704701207047022070473F
:100ACC0090F83A3010B5222B36D183680169B3F512
:100ADC00805F0268836A0BD1526821B9C2F30802A5
:100AEC0023F8022B02E0D2B223F8012B83620AE036
:100AFC0019B9591C8162526804E05268591C816210
:100B0C0002F07F021A70C48D013CA4B2C485ACB94A
:100B1C000368DA6822F02002DA60DA6822F4807264
:100B2C00DA605A6922F001025A61202380F83A30C7
:100B3C0000F016FB204610BD022010BD002010BD99
:100B4C00036870B51A6804461607D9685D6907D141
:100B5C0096065AD58D0658D5BDE87040FFF7B0BF44
:100B6C0015F0010002D111F4907F4ED0D30705D5BA
:100B7C00CE0542BFE36B43F00103E363550704D595
:100B8C0018B1E36B43F00203E363930704D518B188
:100B9C00E36B43F00403E363160704D518B1E36B6E
:100BAC0043F00803E363E36B002B66D0950604D592
:100BBC00880602D52046FFF783FF236820465B6931
:100BCC00E26B110702D413F040051AD0FFF74CFC6E
:100BDC0023685A69520610D55A69606B22F040029C
:100BEC005A6150B1254B4363FFF7BCFC002844D03D
:100BFC00606BBDE87040436B1847204600F0C8FAA4
:100C0C0070BD00F0C5FAE56370BD160627D50D065C
:100C1C0025D594F83920212A2FD1A268B2F5805F0E
:100C2C00226A0AD11188C1F308015960216909B9F6
:100C3C00023200E00132226203E0511C2162127880
:100C4C005A60E28C013A92B2E284B2B9DA6822F0CC
:100C5C008002DA60DA6842F04002DA6070BD500659
:100C6C000BD54A0609D5DA68204622F04002DA6034
:100C7C00202384F8393000F057FA70BD8D0C000831
:100C8C0008B5406A0023C385C38400F081FA08BD0F
:100C9C004FF47A73B0FBF3F0034B00220138586029
:100CAC009A6005221A60704710E000E0014B186052
:100CBC00704700BF08000020074A0002D36800F408
:100CCC00E06023F4E0631B041B0C43F0BF6343F4AC
:100CDC0000330343D360704700ED00E0174B30B591
:100CEC00DB68C3F30223C3F107041D1D042C28BFCA
:100CFC000424062D4FF0010505FA04F404F1FF3429
:100D0C008CBF033B00230C409C4005FA03F3013BD2
:100D1C001A40002842EA04024FEA0212AFBF00F167
:100D2C006040074B00F00F00D2B2A5BFD2B200F565
:100D3C0061401A5480F8002330BD00BF00ED00E084
:100D4C0014ED00E04209012300F01F0003FA00F04B
:100D5C00014B43F82200704700E100E00138B0F18C
:100D6C00807F0AD2064B074AF021586082F8231084
:100D7C000020072298601A6070470120704700BF5E
:100D8C0010E000E000ED00E0704708B5FFF7FCFF55
:100D9C0008BD704708B5104B1A6842F001021A6082
:100DAC0059680E4A0A405A601A6822F0847222F47A
:100DBC0080321A601A6822F480221A605A6822F46F
:100DCC00FE025A604FF41F029A60054B4FF000620E
:100DDC009A60FFF7DEFF08BD001002400000FFF82C
:100DEC0000ED00E02DE9F04106460D460C4601EB06
:100DFC0002084445A4EB050707D0336814F8011B1F
:100E0C001B68304698470028F3D13846BDE8F0817E
:100E1C0070B505460C46084649B1FFF79FF92B689B
:100E2C00024621462846BDE870405B68184770BDF5
:100E3C0008B50249FFF7ECFF08BD00BF1C170008FE
:100E4C0038B50546FFF7E4FF04462846FFF7F0FFE8
:100E5C00204438BD704708B500F06CFAFFF7FAFF74
:100E6C00FFF792F9FFF7BEF9FCE7036810B59B6832
:100E7C000446984730B194F82830626A03F07F0337
:100E8C00D05C10BD4FF0FF3010BD90F8212090F8D1
:100E9C00203053405B06F8D17047036810B59B684F
:100EAC000446984758B194F82830616ADBB25A1C52
:100EBC00D2B284F8282003F07F03C85C10BD4FF039
:100ECC00FF3010BD13B502AC04F8011D64230122E0
:100EDC0021464069FFF751FD012002B010BD90F88A
:100EEC00292090F828309A4290F829302BBF90F89E
:100EFC00280090F82820181A03F1800038BF801AB7
:100F0C007047000010B54FF47A74002284600B4CCB
:100F1C0080F82020426080F82120426180F828204F
:100F2C000276C261426280F82920FF22046080F8B8
:100F3C002A2080F82B20016110BD00BF3417000857
:100F4C00F0B5C36985B004460E4615465BB9624BD5
:100F5C001A7822B9614AC26101221A7003E080201A
:100F6C0000F054FAE061636A5BB95D4B1A7822B900
:100F7C005C4A626201221A7003E0802000F046FA9B
:100F8C00606263695BB9584B1A7822B9574A62613F
:100F9C0001221A7003E0402000F038FA60612369E6
:100FAC0062691360524A934219D1524B2520DA6878
:100FBC00052142F48042DA60DA6822F48042DA6079
:100FCC009A6942F480429A619B69002203F480433F
:100FDC000293029BFFF782FE2520FFF7B3FE6369A5
:100FEC001A68454B9A421AD103F5E6331A69262042
:100FFC0042F400321A611A69052122F400321A6196
:10100C00DA6942F40032DA61DB69002203F400335E
:10101C000393039BFFF762FE2620FFF793FE94F8E1
:10102C002B30FF2B10D094F82A00FF280CD033491A
:10103C0001EBC3077F6801EBC00251F83330009716
:10104C00526851F8301003E000231A4619460093F9
:10105C00206900F009F905F00703042B84F82C50E3
:10106C0004D0062B0CBF0823002300E0072305F057
:10107C003002302A606902D14FF4C06206E005F0FC
:10108C00200202F0FF0122B14FF4806202610133B1
:10109C0000E0016105F0080505F0FF020DB14FF409
:1010AC000052082BC260466004D0092B04D14FF4C7
:1010BC00805300E0002383600C2343610023836191
:1010CC00C361FFF72CFC012204F118016069FFF7E2
:1010DC00D0FC05B0F0BD00BF0C0100208C0000203E
:1010EC00940100200D0100208D010020F80100204A
:1010FC000038014000100240004400407C150008FC
:10110C00024B034A58691360FFF71ABDC80100204F
:10111C0090010020024B034A58691360FFF710BD81
:10112C0098010020900100200C4B1B6893F82020A4
:10113C000132D2B283F8202093F8201093F82120AA
:10114C00914209D093F82010D86901F07F01014435
:10115C0001225869FFF76EBC704700BF9001002058
:10116C000A490A6892F82930107E526A03F07F030C
:10117C00D0540868012290F8293000F1180101338D
:10118C00DBB280F829304069FFF773BC9001002076
:10119C00036882B01A68D2070BD41A68900708D477
:1011AC001A68510705D41A68120702D4019B02B0C1
:1011BC0070475B680193F9E708B505490548FFF7E7
:1011CC00A1FEBDE8084004490448FFF79BBE00BFE0
:1011DC0000380140C8010020004400409801002064
:1011EC00024B1B6803B11847704700BF7802002000
:1011FC00034A536823F0040343F0E06353607047E1
:10120C0000000140034A536843F0E06343F00403D9
:10121C005360704700000140034A536823F00803F1
:10122C0043F0E06353607047000001401FB5032496
:10123C000394089C0294079C0194069C009400F073
:10124C0049F804B010BD70B500248C420ADA05468A
:10125C0050F8106B964203D1AA6868681A6070BD8A
:10126C000134F2E7002070BD7FB504461E4601250F
:10127C0000238DE80C0002950B460246032108481A
:10128C00FFF7D4FF02230193089B0295009322469B
:10129C00334603210348FFF7C9FF04B070BD00BFFC
:1012AC004C1700087C17000870B5049D00248C4274
:1012BC000DDA0668964207D146689E4204D18668CC
:1012CC00AE4201D1C06870BD01341030EFE7002090
:1012DC0070BD0000F0B51C46154B87B01B68054669
:1012EC000E46174613B10C992046984734B90CABEF
:1012FC003A4631462846FFF7A6FF04462046FFF73C
:10130C0001F80C9B02A902930D9B204603930E9BA4
:10131C0004930F9B0593FFF76DF90C9B3A460093D2
:10132C00314623462846FFF7BFFF804707B0F0BD84
:10133C003802002008B5FFF7C9F8BDE80840FEF7F1
:10134C006FBF08B5FFF7D4F8BDE80840FFF71DBD27
:10135C001A4B07B59A69032042F001029A619B6906
:10136C0003F001030193019BFFF7A6FC0022114639
:10137C006FF00B00FFF7B2FC002211466FF00A0071
:10138C00FFF7ACFC002211466FF00900FFF7A6FC3A
:10139C00002211466FF00400FFF7A0FC002211465A
:1013AC006FF00300FFF79AFC002211466FF001006A
:1013BC00FFF794FC03B05DF804FB00BF0010024083
:1013CC000E4B70B51E460E4C0025E41AA410A54217
:1013DC0004D056F8253098470135F8E700F0A6F808
:1013EC00084B094C1E46E41AA4100025A54204D053
:1013FC0056F8253098470135F8E770BD10180008ED
:10140C00101800081018000818180008024B0146A4
:10141C00186800F003B800BF6C00002070B5CD1C3C
:10142C0025F0030508350C2D38BF0C25002D06467C
:10143C0001DBA94202D90C23336046E000F05CF8D2
:10144C00234B1C681A462146A1B10B685B1B0ED4BA
:10145C000B2B03D90B60CC18CD501EE08C420BBF6C
:10146C0063684B681360636018BF0C4615E00C464C
:10147C004968E9E7174C23681BB9304600F02CF893
:10148C0020602946304600F027F8431C18D0C41CB5
:10149C0024F00304A0420DD12560304600F02DF855
:1014AC0004F10B00231D20F00700C31A0ED05A4282
:1014BC00E25070BD211A304600F00EF80130EBD12D
:1014CC000C233360304600F018F8002070BD00BFCC
:1014DC00400200203C02002038B5064C0023054693
:1014EC000846236000F00AF8431C02D1236803B1BC
:1014FC002B6038BD8002002070477047084B1A687B
:10150C000AB9084A1A6008491A680968104409B1EE
:10151C00814202D31860104670474FF0FF3070477D
:10152C00480200208802002044020020F8B500BFC9
:10153C00F8BC08BC9E467047F8B500BFF8BC08BCA8
:04154C009E46704700
:1015500068656C6C6F20776F726C642120796F7591
:1015600072206B657920696E7075743A00796F75B9
:101570007220696E7075742069733A00000801402A
:1015800001000000000801400200000000080140C6
:1015900004000000000801400800000000080140AD
:1015A0001000000000080140200000000008014079
:1015B00040000000000801408000000000080140D9
:1015C0000001000000080140000200000008014086
:1015D000000400000008014000080000000801406D
:1015E0000010000000080140002000000008014039
:1015F000004000000008014000800000000C014095
:1016000001000000000C014002000000000C01403D
:1016100004000000000C014008000000000C014024
:1016200010000000000C014020000000000C0140F0
:1016300040000000000C014080000000000C014050
:1016400000010000000C014000020000000C0140FD
:1016500000040000000C014000080000000C0140E4
:1016600000100000000C014000200000000C0140B0
:1016700000400000000C014000800000001001400C
:1016800001000000001001400200000000100140B5
:10169000040000000010014008000000001001409C
:1016A0001000000000100140200000000010014068
:1016B00040000000001001408000000000100140C8
:1016C0000001000000100140000200000010014075
:1016D000000400000010014000080000001001405C
:1016E0000010000000100140002000000010014028
:1016F0000040000000100140008000000014014084
:10170000010000000014014002000000001401402C
:101710000400000000000000010203040D0A006F35
:101720007666006E616E00696E6600000000000063
:1017300000000000D10E0008F10D0008EB0E0008BB
:10174000A70E0008770E0008970E00080038014029
:101750000008014000040000FD11000800380140AD
:10176000000C0140800000001112000800440040FD
:101770000008014008000000251200080038014060
:101780000008014000020000FD110008003801407F
:10179000000C01404000000011120008004400400D
:1017A000000801400400000025120008430000006A
:1017B0000000000000000000000000000000000029
:1017C0000000000000000000000000000000000019
:1017D0000000000000000000000000000000000009
:1017E00000000000000000000000000000000000F9
:1017F00000000000000000000000000000000000E9
:1018000000000000000000000000000000000000D8
:0818100031010008C5110008B8
:041818000D010008B6
:10181C00100000000100000000A24A0400000000BB
:10182C00B0170008D0170008F017000800000000DF
:10183C00000000000000000000000000AC170008D1
:10184C00000000000000000000000000000000008C
:10185C00000000000000000000000000000000007C
:10186C00000000000000000000000000000000006C
:10187C000000000000000000000000000C00002030
:04000005080002C528
:00000001FF
