:020000040800F2
:1000000000280020B50B0008FD0B0008FD0B0008C0
:10001000FD0B0008FD0B0008FD0B000800000000B0
:10002000000000000000000000000000FD0B0008C0
:10003000FD0B000800000000FD0B0008C31D0008B8
:10004000FD0B0008FD0B0008FD0B0008FD0B000870
:10005000FD0B0008FD0B0008FD0B0008FD0B000860
:10006000FD0B0008FD0B0008FD0B0008FD0B000850
:10007000FD0B0008FD0B0008FD0B0008FD0B000840
:10008000FD0B0008FD0B0008FD0B0008FD0B000830
:10009000FD0B0008FD0B0008FD0B0008FD0B000820
:1000A000FD0B0008FD0B0008FD0B0008FD0B000810
:1000B000FD0B0008611C000800000000FD0B00089B
:1000C000FD0B00080000000000000000FD0B000810
:1000D00000000000811B0008951B000800000000C4
:1000E000FD0B0008FD0B0008FD0B000800000000E0
:1000F0000000000000000000000000000000000000
:0C01000000000000000000005FF808F1A3
:10010C0010B5054C237833B9044B13B10448AFF345
:10011C0000800123237010BD70000020000000003F
:10012C00AC1F0008084B10B51BB108490848AFF3C9
:10013C0000800848036803B910BD074B002BFBD0A7
:10014C00BDE81040184700BF0000000074000020FC
:10015C00AC1F00087000002000000000034613F8DC
:10016C00012B002AFBD1181A0138704753B94AB930
:10017C00002908BF00281CBF4FF0FF314FF0FF30A3
:10018C0000F082B9ADF1080C6DE904CE00F006F870
:10019C00DDF804E0DDE9022304B070472DE9F04FEF
:1001AC008C460C460546099E002B4FD18A421746B9
:1001BC006BD9B2FA82FEBEF1000F0BD0CEF1200546
:1001CC0020FA05F501FA0EF345EA030C02FA0EF7D4
:1001DC0000FA0EF5390CBCFBF1F0BAB201FB10C3FE
:1001EC0000FB02F84FEA154C4CEA0344A04509D930
:1001FC00E41900F1FF3380F02881A04540F22581FD
:10020C0002383C44C8EB0404B4FBF1F301FB134C7F
:10021C0003FB02F2ACB244EA0C418A4209D9C91977
:10022C0003F1FF3480F00F818A4240F20C81023BD3
:10023C0039448A1A43EA00400021002E63D022FA86
:10024C000EF2002386E80C00BDE8F08F8B4207D934
:10025C00002E56D0002186E811000846BDE8F08F2C
:10026C00B3FA83F1002940F09380A34202D3824277
:10027C0000F2FE80851A64EB03039C460120002EDD
:10028C0041D086E82010BDE8F08F12B90127B7FBEA
:10029C00F2F7B7FA87FEBEF1000F36D1E41B4FEA36
:1002AC0017481FFA87F90121B4FBF8F308FB134434
:1002BC0009FB03F24FEA154C4CEA0444A24207D95D
:1002CC00E41903F1FF3002D2A24200F2D3800346BC
:1002DC00A41AB4FBF8F008FB104809FB00F9ACB207
:1002EC0044EA0842914507D9D21900F1FF3402D2F1
:1002FC00914500F2BA802046C9EB020240EA034065
:10030C009BE731463046BDE8F08F07FA0EF7CEF189
:10031C00200C24FA0CF34FEA1748B3FBF8FA1FFA37
:10032C0087F908FB1A3520FA0CFC04FA0EF40AFBC8
:10033C0009FB4CEA040C4FEA1C4242EA05439B457C
:10034C0000FA0EF50AD9DB190AF1FF3280F08B8026
:10035C009B4540F28880AAF1020A3B44CBEB030395
:10036C00B3FBF8F008FB103300FB09F41FFA8CFC0C
:10037C004CEA03439C4207D9DB1900F1FF326ED2E1
:10038C009C426CD902383B441C1B40EA0A418BE767
:10039C00C1F1200E8B4022FA0EFC4CEA030C24FA1D
:1003AC000EF74FEA1C49B7FBF9FA1FFA8CF309FB5D
:1003BC001A7720FA0EF88C400AFB03F548EA04047D
:1003CC004FEA144848EA0747BD4202FA01F200FA24
:1003DC0001FB09D917EB0C070AF1FF3041D2BD42E2
:1003EC003FD9AAF1020A67447F1BB7FBF9F509FB59
:1003FC00157705FB03F3A4B244EA0747BB4208D9BF
:10040C0017EB0C0705F1FF3027D2BB4225D9023D73
:10041C00674445EA0A40A0FB0289FF1A4F4545464E
:10042C004C4614D329D066B3BBEB050367EB04072A
:10043C0007FA0EFECB40CF404EEA030386E8880055
:10044C000021BDE8F08F2346F3E61846DAE6B8EB58
:10045C00020569EB0C040138E5E70546D9E71046BF
:10046C0092E78246C0E7924678E702383A4443E77F
:10047C00084604E7023B3C442AE7C345E7D33C4625
:10048C00D1E73146BDE8F08F704700BF38B505465F
:10049C0000F0EEFC044600F0EBFC001BA84202D27C
:1004AC0000F0A7FBF7E738BD054A08B5D3684FF451
:1004BC007A7083F40053D360FFF7E8FF08BD00BFE8
:1004CC0000100140FF21014800F0D6B88C0000203C
:1004DC0010B501225349544800F00EFC06224FF48B
:1004EC00E131524801F066FA4FF47A70FFF7CEFF13
:1004FC004F494E4801F05AF94B4C4C4801F02AFA3E
:10050C0040B9E3684FF47A7083F40053E360FFF76B
:10051C00BDFFF2E7474C5021204600F052F9A8B13C
:10052C004549424801F042F9E3680A2219883F48DC
:10053C0001F0C9F941493D4801F038F9E36810224E
:10054C0099783A4801F09BF93D4951E03D493748CB
:10055C0001F02CF9E36810229978344801F08FF9F6
:10056C003949324801F022F940F2FF72E3681B88E6
:10057C00934232D0B3F5006F10D2FF2B29D003D8A1
:10058C007F2B34D131492FE040F2FF12934222D01D
:10059C0040F2FF3293422AD12D4925E043F6FF72F7
:1005AC0093421ED0B3F5804F09D240F6FF729342AE
:1005BC0015D041F6FF72934219D1264914E047F643
:1005CC00FF7293420FD04FF6FF7293420FD1224924
:1005DC000AE0224908E0224906E0224904E02249C7
:1005EC0002E0224900E02249104801F0DFF82149DD
:1005FC000E4801F0DBF80024E2B2A1B20D48013440
:10060C0000F08BF8102CF7D10024A1B2094800F0AF
:10061C0049F8013401461022044801F026F9102C47
:10062C00F3D110BD2000200400100140DC0100209B
:10063C00C41F00088C000020F01F00080B200008CD
:10064C00EE1F00081720000839200008432000087E
:10065C004C200008552000086020000846200008A7
:10066C00492000084F20000852200008582000089C
:10067C005C200008ED1F000838B504460D4600F05C
:10068C00FFF804F11003E36020462582162217219F
:10069C0000F0F9F8E368A0229A70E3680022DA709F
:1006AC00204638BD38B504460D4600F008F9E3681D
:1006BC001A889978B2F5006F07D3204600F0BEF97E
:1006CC00204600F041F9290A03E02B0A01EB430113
:1006DC00C9B2204600F0B2F9204600F035F9E9B273
:1006EC00204600F0ABF9204600F02EF9204600F031
:1006FC00E6F8E368204699780131C9B200F09EF91A
:10070C00204600F021F90021204600F0C5F90546ED
:10071C00204600F0F6F8284638BD70B504460D4664
:10072C00164600F0CCF8E3681A889978B2F5006F99
:10073C0007D3204600F082F9204600F005F9290A7B
:10074C0003E02B0A01EB4301C9B2204600F076F915
:10075C00204600F0F9F8E9B2204600F06FF9204687
:10076C0000F0F2F83146204600F068F9204600F01F
:10077C00EBF8204600F0C5F800F07AFB044600F0D8
:10078C0077FB001B092802D800F033FAF7E770BD9D
:10079C00C36810B519880446FFF784FF55280ED09E
:1007AC00E368552219882046FFF7B7FFE368204617
:1007BC001988FFF777FF553818BF012010BD0020AE
:1007CC0010BD9F2910B5044602D9C368997001E089
:1007DC004F2902D9E368490004E021B14900C368FC
:1007EC0061F05F019970204600F052F8E368D87808
:1007FC0020B12046BDE81040FFF7CABF10BD000075
:10080C00F8B500F035FB0E4D06466C68AF6800F08D
:10081C002FFB864269684FF47A73AA6807D28A1A4A
:10082C005A436C68B2FBF4F203FB0020F8BDE41BE6
:10083C005C436868B4FBF0F003FB0600F8BD00BF36
:10084C0010E000E010B50446FFF7DAFF0444FFF7B0
:10085C00D7FF844202D900F0CCF9F8E710BD0000B4
:10086C00064B10B40A1C03EBC004A18818BF01226C
:10087C0053F8300010BC00F049BC00BF64200008E5
:10088C00021D026070470368197003685A70704744
:10089C0010B5044603681121187800F0F1F92368AB
:1008AC000121587800F0ECF9236801215878FFF702
:1008BC00D7FF236801211878FFF7D2FF10BD10B5C0
:1008CC00044603681121187800F0DAF92368012135
:1008DC001878FFF7C5FF236801215878FFF7C0FF90
:1008EC000420FFF7AFFF236800211878FFF7B8FF4B
:1008FC000420FFF7A7FF236800215878FFF7B0FF0B
:10090C0010BD10B5044603681121187800F0B8F931
:10091C00236800215878FFF7A3FF2368002118787B
:10092C00FFF79EFF0420FFF78DFF23680121587805
:10093C00FFF796FF236801211878FFF791FF042039
:10094C00FFF780FF10BD0000F8B5054603680021D5
:10095C00187800F095F92B6801211878FFF780FFC3
:10096C000120FFF76FFF2B6801215878FFF778FF04
:10097C000120FFF767FF0E4FFB262B681B7807EB58
:10098C00C302918857F8330000F0BAFB044640B11B
:10099C00013E16F0FF06F0D12846FFF7B2FF01200A
:1009AC00F8BD2B6801465878FFF75AFF2046F8BD72
:1009BC006420000810B50446036800215878FFF73E
:1009CC004FFF23681121187800F05AF92368002191
:1009DC001878FFF745FF0220FFF734FF2368012149
:1009EC005878FFF73DFF0220FFF72CFF236800210A
:1009FC005878FFF735FF10BD10B504460368002189
:100A0C005878FFF72DFF23681121187800F038F97A
:100A1C00236801211878FFF723FF0220FFF712FF4C
:100A2C00236801215878FFF71BFF0220FFF70AFF0C
:100A3C00236800215878FFF713FF10BD70B50546E9
:100A4C0003680E461878112100F01AF92B68002162
:100A5C005878FFF705FF08242B68F1091878FFF781
:100A6C00FFFE0220FFF7EEFE2B6801215878FFF7FE
:100A7C00F7FE0220FFF7E6FE2B6800215878FFF7FF
:100A8C00EFFE013C02207600FFF7DCFE14F0FF04C1
:100A9C00F6B2E1D170BD00002DE9F04103680546C6
:100AAC0088461878002100F0EBF8184F082600242F
:100ABC002B6800215878FFF7D3FE0220FFF7C2FE07
:100ACC002B6801215878FFF7CBFE2B6864001B784C
:100ADC00E4B207EBC302918857F8330000F010FB27
:100AEC0008B10134E4B20120FFF7ACFE731E13F021
:100AFC00FF06DDD12846B8F1000F02D1FFF77CFFCD
:100B0C0001E0FFF757FF2046BDE8F08164200008A4
:100B1C00214A38B5136823F0070313601F4B19469D
:100B2C001A6822F0F80242F080021A601A6842F049
:100B3C0001021A600A68194B9207FBD55A6822F019
:100B4C00F0025A605A6822F4E06242F4A0625A60E1
:100B5C005A6822F4605242F400525A605A6822F0E9
:100B6C0003025A604A6812F00C05FBD10C4C0D487C
:100B7C0000F04CFD23680B4843F00403236000F0A5
:100B8C0053FD2A4629464FF0FF3000F065FD2368DF
:100B9C0043F00203236038BD0020024000100240E5
:100BAC0010E000E000127A00002103E00B4B5B58D0
:100BBC00435004310A480B4B42189A42F6D30A4A66
:100BCC0002E0002342F8043B084B9A42F9D300F0B0
:100BDC009FFD01F02FF900F079FE70470823000803
:100BEC000000002070000020700000209402002003
:100BFC00FEE770471E4B84B098420BD103F584334B
:100C0C009A6942F004029A619B6903F00403009311
:100C1C00009B2BE0174B98420BD103F582339A695A
:100C2C0042F008029A619B6903F008030193019B4F
:100C3C001CE0114B98420BD103F580339A6942F0BA
:100C4C0010029A619B6903F010030293029B0DE062
:100C5C000A4B98420AD103F57C439A6942F0200270
:100C6C009A619B6903F020030393039B04B07047C4
:100C7C0000080140000C014000100140001401402C
:100C8C007FB51B4B0D4603EBC00253F83040194B9C
:100C9C0056681B6813B13146204698472046FFF72B
:100CAC00A9FF032303930096112D1FD8DFE805F04D
:100CBC0009140C10171E1E1E1E1E1E1E1E1E1E1E8E
:100CCC001E16002301930CE000230193012308E07E
:100CDC0000230193022304E0012300E0112301937C
:100CEC00002369462046029300F038F904B070BD29
:100CFC00642000084C020020F8B515460446FFF7A6
:100D0C0079FF022D09D003D89DB1012D0AD0F8BD71
:100D1C00032D05D0112D08D0F8BD012600270AE0BF
:100D2C000026FBE70026374606E001260427354659
:100D3C0002E02E46042708254FEA116E91FAA1F322
:100D4C00B3FA83F391FAA1F0B0FA80F00F229B0072
:100D5C0002FA03F354F80E20800022EA030205FA8B
:100D6C0000F0104344F80E00E268080A90FAA0F371
:100D7C00B3FA83F322EA000206FA03F31343E360A7
:100D8C0091FAA1F6B6FA86F691FAA1F2B2FA82F2CB
:100D9C0091FAA1F3B3FA83F591FAA1F1B1FA81F1C9
:100DAC000420B60000FA06F654F80E00920020EA71
:100DBC00060007FA02F20243AB00032000FA03F329
:100DCC00890022EA03038840034344F80E30F8BD3F
:100DDC000368DA6822F49072DA605A6922F0010230
:100DEC005A61202380F83A307047000038B50E4B1A
:100DFC00054618784FF47A73B3FBF0F30B4A10687E
:100E0C00B0FBF3F000F068FC044658B90F2D09D87C
:100E1C00024629464FF0FF3000F01EFC044B2046E2
:100E2C001D6038BD012038BD0400002008000020E2
:100E3C0000000020074A08B51368032043F0100394
:100E4C00136000F0F7FB0F20FFF7D0FF00F0BAFFA4
:100E5C00002008BD00200240034A044913680978A9
:100E6C000B441360704700BF600200200400002098
:100E7C00014B1868704700BF60020020F8B50446AB
:100E8C000E4617461D4621680B6836EA03031BD035
:100E9C006B1CF9D095B923680320DA6822F4D07260
:100EAC00DA605A6922F001025A61202384F8393041
:100EBC0084F83A30002384F83830F8BDFFF7D8FFB7
:100ECC00C01B8542DFD2E6E70020F8BD90F8213048
:100EDC0010B5022B03D004238363012010BD0368DB
:100EEC001A6822F00E021A601A6822F001021A60C7
:100EFC00184A934213D01432934212D014329342B4
:100F0C0011D01432934211D01432934211D01432B6
:100F1C0093420CBF4FF480134FF080730BE001230E
:100F2C0009E0102307E04FF4807304E04FF4805382
:100F3C0001E04FF48033084A00245360012380F809
:100F4C002130436B80F8204013B19847204610BDE8
:100F5C00184610BD08000240000002402DE9F74F72
:100F6C00002426465F4BDFF88CE1DFF88CC10122B0
:100F7C000D68B24032EA050540F0AC804D68122D88
:100F8C0028D00ED8022D22D004D835B3012D2DD166
:100F9C00CC682BE0032D18D0112D27D1CC6804344C
:100FAC0024E0514FBD4218D007D8DFF85081454599
:100FBC0013D008F58038454505E04C4FBD420CD0A8
:100FCC0075450AD0654511D107E000240EE0CC68C8
:100FDC0008340BE0CC680C3408E08C682CB1012C84
:100FEC000CBF02614261082400E00424FF2A97BF71
:100FFC008346A6F10805D0F80090B50084BFD0F860
:10100C000490AD004FF00F0808FA05FA29EA0A0916
:10101C0004FA05F588BF00F1040B49EA0505CBF885
:10102C000050D1F8049019F0805F53D0304D304F00
:10103C00AD6906F0030A45F00105BD61BD694FEAD3
:10104C008A0A05F001050195019D26F0030505F1BD
:10105C00804505F58035D5F808B0A7F5843708FA32
:10106C000AF8B8422BEA08080CD007F58067B8429A
:10107C000BD007F58067B8420CBF4FF0020B4FF056
:10108C00030B04E04FF0000B01E04FF0010B0BFAE7
:10109C000AFA4AEA080AC5F808A01D6819F4803F44
:1010AC0014BF154395431D605D6819F4003F14BFD0
:1010BC00154395435D609D6819F4801F14BF15435B
:1010CC0095439D60DD6819F4001F14BF2A4325EA7F
:1010DC000202DA600136102E7FF449AF03B0BDE88E
:1010EC00F08F00BF000401400000211000003110FF
:1010FC0000100240000032100000221000001110FD
:10110C008368194214BF01200020704702B90904FA
:10111C0001617047044B054A5B68C3F30223D35C3F
:10112C00034A1068D840704700100240FC210008A8
:10113C0008000020044B054A5B68C3F3C223D35C50
:10114C00034A1068D840704700100240FC21000888
:10115C00080000202DE9F047056881682B6980465E
:10116C0023F44052C3684FF0190A13432B610369EF
:10117C00EA6819434369194322F4B05323F00C0372
:10118C000B43EB606B6923F44072836913436B610F
:10119C00404B9D4234D1FFF7CDFF0AFB00F0D8F84D
:1011AC0004606427B600B0FBF6F6FFF7C3FF0AFB3A
:1011BC0000F0D8F80440B6FBF7F6A400B0FBF4F44A
:1011CC00FFF7B8FF0AFB00F0D8F8043036019B009B
:1011DC00B0FBF3F0B0FBF7F007FB1044FFF7AAFFEE
:1011EC0024013234B4FBF7F40AFB00F0D8F80430D5
:1011FC0004F0F0049A00B0FBF2F9FFF79BFF33E028
:10120C00FFF788FF0AFB00F0D8F804606427B600EB
:10121C00B0FBF6F6FFF77EFF0AFB00F0D8F80440AF
:10122C00B6FBF7F6A400B0FBF4F4FFF773FF0AFB70
:10123C0000F0D8F8043036019B00B0FBF3F0B0FBA3
:10124C00F7F007FB1044FFF765FF24013234B4FBC1
:10125C00F7F40AFB00F0D8F8043004F0F0049A001C
:10126C00B0FBF2F9FFF756FF0AFB00F1D8F80400C7
:10127C008000B1FBF0F0B0FBF7F007FB109212010D
:10128C003232B2FBF7F303F00F0323441E44AE607B
:10129C00BDE8F08700380140704710B5044640B3F4
:1012AC0090F8393003F0FF021BB980F83820FFF7B3
:1012BC00F3FF2268242384F83930D368204623F4C2
:1012CC000053D360FFF746FF236800201A6922F40D
:1012DC0090421A615A6922F02A025A61DA6842F481
:1012EC000052DA602023E06384F8393084F83A3015
:1012FC0010BD012010BD2DE9F0411F4690F839308A
:10130C000446202B0D4690464FD100294AD0002A86
:10131C0048D090F83830012B47D0012380F8383072
:10132C000023C363212380F83930FFF7A1FD064663
:10133C00A4F82480A4F82680E38C9BB21BB3E38C26
:10134C003246013B9BB2E384A3688021B3F5805FF6
:10135C0020463B460ED1FFF791FD10B10320BDE8AE
:10136C00F0812B882268C3F308035360236943B9C7
:10137C000235E1E7FFF782FD0028EFD123682A78D8
:10138C005A600135D8E73B46324640212046FFF7EC
:10139C0075FD0028E2D1202384F8393084F8380018
:1013AC00BDE8F0810120BDE8F0810220BDE8F081AC
:1013BC0090F83930202B18D1A9B1A2B190F838305F
:1013CC00012B12D0C2840162828400230168212285
:1013DC00C36380F83920CA6880F8383042F0800244
:1013EC00CA6018467047012070470220704790F879
:1013FC003A30202B20D1E9B1E2B190F83830012BF2
:10140C001AD0C285828500232222C36380F83A2039
:10141C0002688162D16880F8383041F48071D16003
:10142C005169184641F001015161D16841F0200128
:10143C00D1607047012070470220704790F83A3015
:10144C0010B5222B36D183680169B3F5805F026831
:10145C00836A0BD1526821B9C2F3080223F8022B1C
:10146C0002E0D2B223F8012B83620AE019B9591CAD
:10147C008162526804E05268591C816202F07F025A
:10148C001A70C48D013CA4B2C485ACB90368DA6887
:10149C0022F02002DA60DA6822F48072DA605A698B
:1014AC0022F001025A61202380F83A3000F092FBBE
:1014BC00204610BD022010BD002010BD036870B581
:1014CC001A6804461607D9685D6907D196065AD57D
:1014DC008D0658D5BDE87040FFF7B0BF15F0010080
:1014EC0002D111F4907F4ED0D30705D5CE0542BF63
:1014FC00E36B43F00103E363550704D518B1E36BC9
:10150C0043F00203E363930704D518B1E36B43F094
:10151C000403E363160704D518B1E36B43F0080327
:10152C00E363E36B002B66D0950604D5880602D5E1
:10153C002046FFF783FF236820465B69E26B1107A7
:10154C0002D413F040051AD0FFF742FC23685A6905
:10155C00520610D55A69606B22F040025A6150B1A4
:10156C00254B4363FFF7B2FC002844D0606BBDE809
:10157C007040436B1847204600F044FB70BD00F0F0
:10158C0041FBE56370BD160627D50D0625D594F8ED
:10159C003920212A2FD1A268B2F5805F226A0AD1A4
:1015AC001188C1F308015960216909B9023200E0C0
:1015BC000132226203E0511C216212785A60E28CE3
:1015CC00013A92B2E284B2B9DA6822F08002DA60AF
:1015DC00DA6842F04002DA6070BD50060BD54A065C
:1015EC0009D5DA68204622F04002DA60202384F81C
:1015FC00393000F0D3FA70BD0916000808B5406AFE
:10160C000023C385C38400F0FDFA08BD4FF47A7340
:10161C00B0FBF3F0034B0022013858609A600522AE
:10162C001A60704710E000E0014B1860704700BF73
:10163C0008000020074A0002D36800F4E06023F49D
:10164C00E0631B041B0C43F0BF6343F40033034300
:10165C00D360704700ED00E0174B30B5DB68C3F387
:10166C000223C3F107041D1D042C28BF0424062DDE
:10167C004FF0010505FA04F404F1FF348CBF033B71
:10168C0000230C409C4005FA03F3013B1A40002850
:10169C0042EA04024FEA0212AFBF00F16040074B6E
:1016AC0000F00F00D2B2A5BFD2B200F561401A54BF
:1016BC0080F8002330BD00BF00ED00E014ED00E029
:1016CC004209012300F01F0003FA00F0014B43F81C
:1016DC002200704700E100E00138B0F1807F0AD2AF
:1016EC00064B074AF021586082F82310002007228D
:1016FC0098601A6070470120704700BF10E000E04E
:10170C0000ED00E0704708B5FFF7FCFF08BD70471F
:10171C0008B5104B1A6842F001021A6059680E4A5B
:10172C000A405A601A6822F0847222F480321A60DD
:10173C001A6822F480221A605A6822F4FE025A6057
:10174C004FF41F029A60054B4FF000629A60FFF74E
:10175C00DEFF08BD001002400000FFF800ED00E0C5
:10176C002DE9F04106460D460C4601EB02084445B6
:10177C00A4EB050707D0336814F8011B1B6830462F
:10178C0098470028F3D13846BDE8F08170B505467E
:10179C000C46084649B1FEF7E1FC2B68024621468F
:1017AC002846BDE870405B68184770BD08B5FFF768
:1017BC00EDFF08BD03681B681847000008B5024917
:1017CC00FFF7E4FF08BD00BFED1F00082DE9F04F47
:1017DC00164695B09DF878401F46012C4FF000033B
:1017EC0098BF0A2401908DF84C300DF14B0BE4B2EC
:1017FC0000253046394622462B46FEF7B7FC3046CC
:10180C005FFA82FA9046994639462B462246FEF7F5
:10181C00ADFC0F460646B9F1000F08BFB8F10A0F30
:10182C0034BF0AF1300A0AF1370A5FFA8AFA56EA2B
:10183C00070359460BF801A9DBD10198FFF7A6FF66
:10184C0015B0BDE8F08F07B532B90368C9B21B6893
:10185C0003B05DF804EB1847D2B2009200230A469D
:10186C00FFF7B4FF03B05DF804FB38B50546FFF78E
:10187C00EAFF04462846FFF7A1FF204438BDF7B520
:10188C0007460C46154632B90368C9B21B6803B04B
:10189C00BDE8F04018470A2A0DD100290CDA2D2199
:1018AC00FFF788FF624206460095D3173846FFF7CC
:1018BC008DFF304405E0D5B200952246E317FFF7C3
:1018CC0085FF03B0F0BDFFF7DABF704708B500F035
:1018DC006BFAFFF7FAFFFEF7FBFDFEF7E5FDFCE701
:1018EC00036810B59B680446984730B194F82830CB
:1018FC00626A03F07F03D05C10BD4FF0FF3010BD67
:10190C0090F8212090F8203053405B06F8D17047B6
:10191C00036810B59B680446984758B194F8283072
:10192C00616ADBB25A1CD2B284F8282003F07F0320
:10193C00C85C10BD4FF0FF3010BD13B502AC04F8FD
:10194C00011D6423012221464069FFF7D4FC0120CC
:10195C0002B010BD90F8292090F828309A4290F8E7
:10196C0029302BBF90F8280090F82820181A03F182
:10197C00800038BF801A704710B54FF47A7400227B
:10198C0084600B4C80F82020426080F8212042615A
:10199C0080F828200276C261426280F82920FF225A
:1019AC00046080F82A2080F82B20016110BD00BF54
:1019BC0018220008F0B5C36985B004460E461546DA
:1019CC005BB9624B1A7822B9614AC26101221A7062
:1019DC0003E0802000F054FAE061636A5BB95D4B70
:1019EC001A7822B95C4A626201221A7003E08020E4
:1019FC0000F046FA606263695BB9584B1A7822B9F9
:101A0C00574A626101221A7003E0402000F038FA54
:101A1C006061236962691360524A934219D1524B37
:101A2C002520DA68052142F48042DA60DA6822F473
:101A3C008042DA609A6942F480429A619B69002282
:101A4C0003F480430293029BFFF706FE2520FFF769
:101A5C0037FE63691A68454B9A421AD103F5E6338F
:101A6C001A69262042F400321A611A69052122F4FF
:101A7C0000321A61DA6942F40032DA61DB69002261
:101A8C0003F400330393039BFFF7E6FD2620FFF7D7
:101A9C0017FE94F82B30FF2B10D094F82A00FF2857
:101AAC000CD0334901EBC3077F6801EBC00251F83E
:101ABC0033300097526851F8301003E000231A4677
:101ACC0019460093206900F009F905F00703042B6F
:101ADC0084F82C5004D0062B0CBF0823002300E004
:101AEC00072305F03002302A606902D14FF4C0623E
:101AFC0006E005F0200202F0FF0122B14FF48062F3
:101B0C000261013300E0016105F0080505F0FF02F8
:101B1C000DB14FF40052082BC260466004D0092B63
:101B2C0004D14FF4805300E0002383600C23436105
:101B3C0000238361C361FFF7B0FB012204F118019C
:101B4C006069FFF754FC05B0F0BD00BF2001002018
:101B5C00A0000020A801002021010020A1010020EC
:101B6C000C020020003801400010024000440040EC
:101B7C0064200008024B034A58691360FFF79EBCAF
:101B8C00DC010020A4010020024B034A58691360B9
:101B9C00FFF794BCAC010020A40100200C4B1B6887
:101BAC0093F820200132D2B283F8202093F8201031
:101BBC0093F82120914209D093F82010D86901F0B4
:101BCC007F01014401225869FFF7F2BB704700BF47
:101BDC00A40100200A490A6892F82930107E526A42
:101BEC0003F07F03D0540868012290F8293000F1EB
:101BFC0018010133DBB280F829304069FFF7F7BBDD
:101C0C00A4010020036882B01A68D2070BD41A68AA
:101C1C00900708D41A68510705D41A68120702D421
:101C2C00019B02B070475B680193F9E708B5054961
:101C3C000548FFF7A1FEBDE8084004490448FFF73A
:101C4C009BBE00BF00380140DC0100200044004076
:101C5C00AC010020024B1B6803B11847704700BF52
:101C6C0088020020034A536823F0040343F0E06326
:101C7C005360704700000140034A536843F0E0632F
:101C8C0043F004035360704700000140034A53685B
:101C9C0023F0080343F0E0635360704700000140F9
:101CAC001FB503240394089C0294079C0194069C82
:101CBC00009400F049F804B010BD70B500248C42BB
:101CCC000ADA054650F8106B964203D1AA68686888
:101CDC001A6070BD0134F2E7002070BD7FB5044678
:101CEC001E46012500238DE80C0002950B4602468A
:101CFC0003210848FFF7D4FF02230193089B0295A8
:101D0C0000932246334603210348FFF7C9FF04B072
:101D1C0070BD00BF302200086022000870B5049D21
:101D2C0000248C420DDA0668964207D146689E4222
:101D3C0004D18668AE4201D1C06870BD0134103048
:101D4C00EFE7002070BD0000F0B51C46154B87B0C6
:101D5C001B6805460E46174613B10C99204698474A
:101D6C0034B90CAB3A4631462846FFF7A6FF044679
:101D7C002046FEF73FFF0C9B02A902930D9B2046C9
:101D8C0003930E9B04930F9B0593FFF7E7F80C9BB3
:101D9C003A460093314623462846FFF7BFFF80475B
:101DAC0007B0F0BD4C02002008B5FFF743F8BDE8C2
:101DBC000840FEF7ADBE08B5FFF74EF8BDE8084089
:101DCC00FFF7A1BC1A4B07B59A69032042F0010238
:101DDC009A619B6903F001030193019BFFF72AFCB5
:101DEC00002211466FF00B00FFF736FC0022114663
:101DFC006FF00A00FFF730FC002211466FF009006B
:101E0C00FFF72AFC002211466FF00400FFF724FCB8
:101E1C00002211466FF00300FFF71EFC0022114652
:101E2C006FF00100FFF718FC03B05DF804FB00BF76
:101E3C00001002400E4B70B51E460E4C0025E41AE5
:101E4C00A410A54204D056F8253098470135F8E780
:101E5C0000F0A6F8084B094C1E46E41AA410002505
:101E6C00A54204D056F8253098470135F8E770BDE7
:101E7C00F8220008F8220008F822000804230008C1
:101E8C00024B0146186800F003B800BF6C0000203C
:101E9C0070B5CD1C25F0030508350C2D38BF0C256D
:101EAC00002D064601DBA94202D90C23336046E023
:101EBC0000F05CF8234B1C681A462146A1B10B6854
:101ECC005B1B0ED40B2B03D90B60CC18CD501EE032
:101EDC008C420BBF63684B681360636018BF0C4681
:101EEC0015E00C464968E9E7174C23681BB93046E6
:101EFC0000F02CF820602946304600F027F8431CEF
:101F0C0018D0C41C24F00304A0420DD12560304627
:101F1C0000F02DF804F10B00231D20F00700C31A6C
:101F2C000ED05A42E25070BD211A304600F00EF825
:101F3C000130EBD10C233360304600F018F8002050
:101F4C0070BD00BF540200205002002038B5064C72
:101F5C00002305460846236000F00AF8431C02D112
:101F6C00236803B12B6038BD900200207047704786
:101F7C00084B1A680AB9084A1A6008491A680968AD
:101F8C00104409B1814202D31860104670474FF0DB
:101F9C00FF3070475C02002098020020580200209D
:101FAC00F8B500BFF8BC08BC9E467047F8B500BF3A
:081FBC00F8BC08BC9E4670470A
:101FC400507265737320616E79206B657920667237
:101FD4006F6D2053657269616C20746F2062656750
:101FE400696E202E2E2E2E2E2E0D0A00656570721F
:101FF4006F6D20696E69742065727221202064659A
:10200400763A3234432000202061742061647220C7
:10201400307800656570726F6D20696E6974206F29
:102024006B21202061742064657669636520616496
:1020340072203078002069732041543234430030D8
:102044003100303200303400303800313600333261
:102054000036340031323800323536003531320042
:1020640000080140010000000008014002000000D7
:1020740000080140040000000008014008000000BE
:10208400000801401000000000080140200000008A
:1020940000080140400000000008014080000000EA
:1020A4000008014000010000000801400002000097
:1020B400000801400004000000080140000800007E
:1020C400000801400010000000080140002000004A
:1020D40000080140004000000008014000800000AA
:1020E400000C014001000000000C0140020000004F
:1020F400000C014004000000000C01400800000036
:10210400000C014010000000000C01402000000001
:10211400000C014040000000000C01408000000061
:10212400000C014000010000000C0140000200000E
:10213400000C014000040000000C014000080000F5
:10214400000C014000100000000C014000200000C1
:10215400000C014000400000000C01400080000021
:1021640000100140010000000010014002000000C6
:1021740000100140040000000010014008000000AD
:102184000010014010000000001001402000000079
:1021940000100140400000000010014080000000D9
:1021A4000010014000010000001001400002000086
:1021B400001001400004000000100140000800006D
:1021C4000010014000100000001001400020000039
:1021D4000010014000400000001001400080000099
:1021E400001401400100000000140140020000003E
:1021F4000014014004000000000000000102030478
:102204006F7666006E616E00696E66000000000005
:1022140000000000471900086D1700086119000844
:102224001D190008ED1800080D19000800380140B8
:102234000008014000040000711C0008003801403F
:10224400000C014080000000851C00080044004090
:102254000008014008000000991C000800380140F3
:102264000008014000020000711C00080038014011
:10227400000C014040000000851C000800440040A0
:102284000008014004000000991C00080000000040
:10229400000000000000000000000000000000003A
:1022A400000000000000000000000000000000002A
:1022B400000000000000000000000000000000001A
:1022C400000000000000000000000000000000000A
:1022D40000000000000000000000000000000000FA
:0C22E400000000000000000000000000EE
:0822F000B8DEFF7F01000000D1
:0C22F80031010008D1040008391C000866
:042304000D010008BF
:10230800100000000100000000A24A0400000000C4
:1023180090220008B0220008D02200080000000027
:1023280000000000000000000000000000000000A5
:102338000000000000000000000000000000000095
:102348000000000000000000000000000000000085
:102358000000000000000000000000000000000075
:102368000000000000000000000000000C00002039
:0400000508000BB52F
:00000001FF
